{
  "contractName": "CreditPool",
  "abi": [
    {
      "inputs": [
        {
          "internalType": "address",
          "name": "stablecoinAddress",
          "type": "address"
        },
        {
          "internalType": "uint256",
          "name": "_interestRate",
          "type": "uint256"
        },
        {
          "internalType": "uint256",
          "name": "_repaymentPeriod",
          "type": "uint256"
        }
      ],
      "stateMutability": "nonpayable",
      "type": "constructor"
    },
    {
      "anonymous": false,
      "inputs": [
        {
          "indexed": false,
          "internalType": "uint256",
          "name": "tokenId",
          "type": "uint256"
        },
        {
          "indexed": false,
          "internalType": "address",
          "name": "user",
          "type": "address"
        },
        {
          "indexed": false,
          "internalType": "uint256",
          "name": "amount",
          "type": "uint256"
        }
      ],
      "name": "CreditRepaid",
      "type": "event"
    },
    {
      "anonymous": false,
      "inputs": [
        {
          "indexed": false,
          "internalType": "uint256",
          "name": "tokenId",
          "type": "uint256"
        },
        {
          "indexed": false,
          "internalType": "address",
          "name": "user",
          "type": "address"
        },
        {
          "indexed": false,
          "internalType": "uint256",
          "name": "amount",
          "type": "uint256"
        }
      ],
      "name": "CreditRequested",
      "type": "event"
    },
    {
      "anonymous": false,
      "inputs": [
        {
          "indexed": true,
          "internalType": "address",
          "name": "previousOwner",
          "type": "address"
        },
        {
          "indexed": true,
          "internalType": "address",
          "name": "newOwner",
          "type": "address"
        }
      ],
      "name": "OwnershipTransferred",
      "type": "event"
    },
    {
      "inputs": [],
      "name": "interestRate",
      "outputs": [
        {
          "internalType": "uint256",
          "name": "",
          "type": "uint256"
        }
      ],
      "stateMutability": "view",
      "type": "function",
      "constant": true
    },
    {
      "inputs": [],
      "name": "owner",
      "outputs": [
        {
          "internalType": "address",
          "name": "",
          "type": "address"
        }
      ],
      "stateMutability": "view",
      "type": "function",
      "constant": true
    },
    {
      "inputs": [],
      "name": "renounceOwnership",
      "outputs": [],
      "stateMutability": "nonpayable",
      "type": "function"
    },
    {
      "inputs": [],
      "name": "repaymentPeriod",
      "outputs": [
        {
          "internalType": "uint256",
          "name": "",
          "type": "uint256"
        }
      ],
      "stateMutability": "view",
      "type": "function",
      "constant": true
    },
    {
      "inputs": [],
      "name": "totalFunds",
      "outputs": [
        {
          "internalType": "uint256",
          "name": "",
          "type": "uint256"
        }
      ],
      "stateMutability": "view",
      "type": "function",
      "constant": true
    },
    {
      "inputs": [
        {
          "internalType": "address",
          "name": "newOwner",
          "type": "address"
        }
      ],
      "name": "transferOwnership",
      "outputs": [],
      "stateMutability": "nonpayable",
      "type": "function"
    },
    {
      "inputs": [
        {
          "internalType": "uint256",
          "name": "amount",
          "type": "uint256"
        }
      ],
      "name": "addFunds",
      "outputs": [],
      "stateMutability": "nonpayable",
      "type": "function"
    },
    {
      "inputs": [
        {
          "internalType": "uint256",
          "name": "tokenId",
          "type": "uint256"
        },
        {
          "internalType": "address",
          "name": "user",
          "type": "address"
        },
        {
          "internalType": "uint256",
          "name": "amount",
          "type": "uint256"
        }
      ],
      "name": "requestCredit",
      "outputs": [],
      "stateMutability": "nonpayable",
      "type": "function"
    },
    {
      "inputs": [
        {
          "internalType": "uint256",
          "name": "tokenId",
          "type": "uint256"
        },
        {
          "internalType": "address",
          "name": "user",
          "type": "address"
        },
        {
          "internalType": "uint256",
          "name": "amount",
          "type": "uint256"
        }
      ],
      "name": "repayCredit",
      "outputs": [],
      "stateMutability": "nonpayable",
      "type": "function"
    },
    {
      "inputs": [
        {
          "internalType": "uint256",
          "name": "newInterestRate",
          "type": "uint256"
        }
      ],
      "name": "setInterestRate",
      "outputs": [],
      "stateMutability": "nonpayable",
      "type": "function"
    },
    {
      "inputs": [
        {
          "internalType": "uint256",
          "name": "newRepaymentPeriod",
          "type": "uint256"
        }
      ],
      "name": "setRepaymentPeriod",
      "outputs": [],
      "stateMutability": "nonpayable",
      "type": "function"
    }
  ],
  "bytecode": "0x608060405234801561001057600080fd5b5060405161082838038061082883398101604081905261002f916100b4565b61003833610064565b600180546001600160a01b0319166001600160a01b0394909416939093179092556003556004556100f7565b600080546001600160a01b038381166001600160a01b0319831681178455604051919092169283917f8be0079c531659141344cd1fd0a4f28419497f9722a3daafe3b4186f6b6457e09190a35050565b6000806000606084860312156100c957600080fd5b83516001600160a01b03811681146100e057600080fd5b602085015160409095015190969495509392505050565b610722806101066000396000f3fe608060405234801561001057600080fd5b50600436106100a95760003560e01c80639daa7a77116100715780639daa7a771461010b578063be9997051461011e578063d0bfec6214610131578063e7b63a0b1461013a578063f1cfb9011461014d578063f2fde38b1461016057600080fd5b80635f84f302146100ae578063715018a6146100c35780637c3a00fd146100cb5780638da5cb5b146100e7578063968ed60014610102575b600080fd5b6100c16100bc3660046105b8565b610173565b005b6100c1610180565b6100d460035481565b6040519081526020015b60405180910390f35b6000546040516001600160a01b0390911681526020016100de565b6100d460025481565b6100c16101193660046105ed565b610194565b6100c161012c3660046105b8565b61027f565b6100d460045481565b6100c16101483660046105b8565b610315565b6100c161015b3660046105ed565b610322565b6100c161016e366004610622565b610495565b61017b61050e565b600355565b61018861050e565b6101926000610568565b565b61019c61050e565b6001546040516323b872dd60e01b81526001600160a01b03848116600483015230602483015260448201849052909116906323b872dd906064016020604051808303816000875af11580156101f5573d6000803e3d6000fd5b505050506040513d601f19601f820116820180604052508101906102199190610644565b50806002600082825461022c919061067c565b9091555050604080518481526001600160a01b03841660208201529081018290527f0f370a9e130ee10f0a96ec3a5264912801f0713612e78cbbb83f4f5de0de9dee9060600160405180910390a1505050565b6001546040516323b872dd60e01b8152336004820152306024820152604481018390526001600160a01b03909116906323b872dd906064016020604051808303816000875af11580156102d6573d6000803e3d6000fd5b505050506040513d601f19601f820116820180604052508101906102fa9190610644565b50806002600082825461030d919061067c565b909155505050565b61031d61050e565b600455565b61032a61050e565b8060025410156103815760405162461bcd60e51b815260206004820152601f60248201527f496e73756666696369656e742066756e647320696e2074686520706f6f6c2e0060448201526064015b60405180910390fd5b80600260008282546103939190610694565b90915550506003546000906064906103ab90846106ab565b6103b591906106ca565b905080600260008282546103c9919061067c565b909155505060015460405163a9059cbb60e01b81526001600160a01b038581166004830152602482018590529091169063a9059cbb906044016020604051808303816000875af1158015610421573d6000803e3d6000fd5b505050506040513d601f19601f820116820180604052508101906104459190610644565b50604080518581526001600160a01b03851660208201529081018390527f6e2dc5c76238d5094ccf6f24932391fddf95acea0897c28ce1f5cf6976f97fd09060600160405180910390a150505050565b61049d61050e565b6001600160a01b0381166105025760405162461bcd60e51b815260206004820152602660248201527f4f776e61626c653a206e6577206f776e657220697320746865207a65726f206160448201526564647265737360d01b6064820152608401610378565b61050b81610568565b50565b6000546001600160a01b031633146101925760405162461bcd60e51b815260206004820181905260248201527f4f776e61626c653a2063616c6c6572206973206e6f7420746865206f776e65726044820152606401610378565b600080546001600160a01b038381166001600160a01b0319831681178455604051919092169283917f8be0079c531659141344cd1fd0a4f28419497f9722a3daafe3b4186f6b6457e09190a35050565b6000602082840312156105ca57600080fd5b5035919050565b80356001600160a01b03811681146105e857600080fd5b919050565b60008060006060848603121561060257600080fd5b83359250610612602085016105d1565b9150604084013590509250925092565b60006020828403121561063457600080fd5b61063d826105d1565b9392505050565b60006020828403121561065657600080fd5b8151801515811461063d57600080fd5b634e487b7160e01b600052601160045260246000fd5b6000821982111561068f5761068f610666565b500190565b6000828210156106a6576106a6610666565b500390565b60008160001904831182151516156106c5576106c5610666565b500290565b6000826106e757634e487b7160e01b600052601260045260246000fd5b50049056fea2646970667358221220b7d1b7d719060d149c8f93147f3c5801b69ac544060ab38af7757349abbccdac64736f6c634300080d0033",
  "immutableReferences": {},
  "source": "// SPDX-License-Identifier: MIT\npragma solidity ^0.8.13;\n\nimport \"@openzeppelin/contracts/token/ERC20/IERC20.sol\";\nimport \"@openzeppelin/contracts/access/Ownable.sol\";\n\ncontract CreditPool is Ownable {\n    IERC20 private stablecoin;\n    uint256 public totalFunds;\n    uint256 public interestRate;\n    uint256 public repaymentPeriod;\n\n    event CreditRequested(uint256 tokenId, address user, uint256 amount);\n    event CreditRepaid(uint256 tokenId, address user, uint256 amount);\n\n    constructor(\n        address stablecoinAddress,\n        uint256 _interestRate,\n        uint256 _repaymentPeriod\n    ) {\n        stablecoin = IERC20(stablecoinAddress);\n        interestRate = _interestRate;\n        repaymentPeriod = _repaymentPeriod;\n    }\n\n    function addFunds(uint256 amount) public {\n        stablecoin.transferFrom(msg.sender, address(this), amount);\n        totalFunds += amount;\n    }\n\n    function requestCredit(\n        uint256 tokenId,\n        address user,\n        uint256 amount\n    ) public onlyOwner {\n        require(totalFunds >= amount, \"Insufficient funds in the pool.\");\n        totalFunds -= amount;\n\n        uint256 interest = (amount * interestRate) / 100;\n        totalFunds += interest;\n\n        stablecoin.transfer(user, amount);\n\n        emit CreditRequested(tokenId, user, amount);\n    }\n\n    function repayCredit(\n        uint256 tokenId,\n        address user,\n        uint256 amount\n    ) public onlyOwner {\n        stablecoin.transferFrom(user, address(this), amount);\n        totalFunds += amount;\n\n        emit CreditRepaid(tokenId, user, amount);\n    }\n\n    function setInterestRate(uint256 newInterestRate) public onlyOwner {\n        interestRate = newInterestRate;\n    }\n\n    function setRepaymentPeriod(uint256 newRepaymentPeriod) public onlyOwner {\n        repaymentPeriod = newRepaymentPeriod;\n    }\n}\n",
  "sourcePath": "/Users/aisendlopez/CryptoCredit/cryptocredit-contracts/contracts/CreditPool.sol",
  "compiler": {
    "name": "solc",
    "version": "0.8.13+commit.abaa5c0e.Emscripten.clang"
  },
  "schemaVersion": "3.4.13",
  "updatedAt": "2023-05-11T00:16:37.598Z",
  "networkType": "ethereum",
  "devdoc": {
    "kind": "dev",
    "methods": {
      "owner()": {
        "details": "Returns the address of the current owner."
      },
      "renounceOwnership()": {
        "details": "Leaves the contract without owner. It will not be possible to call `onlyOwner` functions anymore. Can only be called by the current owner. NOTE: Renouncing ownership will leave the contract without an owner, thereby removing any functionality that is only available to the owner."
      },
      "transferOwnership(address)": {
        "details": "Transfers ownership of the contract to a new account (`newOwner`). Can only be called by the current owner."
      }
    },
    "version": 1
  },
  "userdoc": {
    "kind": "user",
    "methods": {},
    "version": 1
  }
}