{
  "contractName": "CreditCardToken",
  "abi": [
    {
      "inputs": [],
      "stateMutability": "nonpayable",
      "type": "constructor"
    },
    {
      "anonymous": false,
      "inputs": [
        {
          "indexed": true,
          "internalType": "address",
          "name": "account",
          "type": "address"
        },
        {
          "indexed": true,
          "internalType": "address",
          "name": "operator",
          "type": "address"
        },
        {
          "indexed": false,
          "internalType": "bool",
          "name": "approved",
          "type": "bool"
        }
      ],
      "name": "ApprovalForAll",
      "type": "event"
    },
    {
      "anonymous": false,
      "inputs": [
        {
          "indexed": true,
          "internalType": "address",
          "name": "previousOwner",
          "type": "address"
        },
        {
          "indexed": true,
          "internalType": "address",
          "name": "newOwner",
          "type": "address"
        }
      ],
      "name": "OwnershipTransferred",
      "type": "event"
    },
    {
      "anonymous": false,
      "inputs": [
        {
          "indexed": true,
          "internalType": "address",
          "name": "operator",
          "type": "address"
        },
        {
          "indexed": true,
          "internalType": "address",
          "name": "from",
          "type": "address"
        },
        {
          "indexed": true,
          "internalType": "address",
          "name": "to",
          "type": "address"
        },
        {
          "indexed": false,
          "internalType": "uint256[]",
          "name": "ids",
          "type": "uint256[]"
        },
        {
          "indexed": false,
          "internalType": "uint256[]",
          "name": "values",
          "type": "uint256[]"
        }
      ],
      "name": "TransferBatch",
      "type": "event"
    },
    {
      "anonymous": false,
      "inputs": [
        {
          "indexed": true,
          "internalType": "address",
          "name": "operator",
          "type": "address"
        },
        {
          "indexed": true,
          "internalType": "address",
          "name": "from",
          "type": "address"
        },
        {
          "indexed": true,
          "internalType": "address",
          "name": "to",
          "type": "address"
        },
        {
          "indexed": false,
          "internalType": "uint256",
          "name": "id",
          "type": "uint256"
        },
        {
          "indexed": false,
          "internalType": "uint256",
          "name": "value",
          "type": "uint256"
        }
      ],
      "name": "TransferSingle",
      "type": "event"
    },
    {
      "anonymous": false,
      "inputs": [
        {
          "indexed": false,
          "internalType": "string",
          "name": "value",
          "type": "string"
        },
        {
          "indexed": true,
          "internalType": "uint256",
          "name": "id",
          "type": "uint256"
        }
      ],
      "name": "URI",
      "type": "event"
    },
    {
      "inputs": [
        {
          "internalType": "address",
          "name": "account",
          "type": "address"
        },
        {
          "internalType": "uint256",
          "name": "id",
          "type": "uint256"
        }
      ],
      "name": "balanceOf",
      "outputs": [
        {
          "internalType": "uint256",
          "name": "",
          "type": "uint256"
        }
      ],
      "stateMutability": "view",
      "type": "function",
      "constant": true
    },
    {
      "inputs": [
        {
          "internalType": "address[]",
          "name": "accounts",
          "type": "address[]"
        },
        {
          "internalType": "uint256[]",
          "name": "ids",
          "type": "uint256[]"
        }
      ],
      "name": "balanceOfBatch",
      "outputs": [
        {
          "internalType": "uint256[]",
          "name": "",
          "type": "uint256[]"
        }
      ],
      "stateMutability": "view",
      "type": "function",
      "constant": true
    },
    {
      "inputs": [
        {
          "internalType": "address",
          "name": "account",
          "type": "address"
        },
        {
          "internalType": "address",
          "name": "operator",
          "type": "address"
        }
      ],
      "name": "isApprovedForAll",
      "outputs": [
        {
          "internalType": "bool",
          "name": "",
          "type": "bool"
        }
      ],
      "stateMutability": "view",
      "type": "function",
      "constant": true
    },
    {
      "inputs": [],
      "name": "owner",
      "outputs": [
        {
          "internalType": "address",
          "name": "",
          "type": "address"
        }
      ],
      "stateMutability": "view",
      "type": "function",
      "constant": true
    },
    {
      "inputs": [],
      "name": "renounceOwnership",
      "outputs": [],
      "stateMutability": "nonpayable",
      "type": "function"
    },
    {
      "inputs": [
        {
          "internalType": "address",
          "name": "from",
          "type": "address"
        },
        {
          "internalType": "address",
          "name": "to",
          "type": "address"
        },
        {
          "internalType": "uint256[]",
          "name": "ids",
          "type": "uint256[]"
        },
        {
          "internalType": "uint256[]",
          "name": "amounts",
          "type": "uint256[]"
        },
        {
          "internalType": "bytes",
          "name": "data",
          "type": "bytes"
        }
      ],
      "name": "safeBatchTransferFrom",
      "outputs": [],
      "stateMutability": "nonpayable",
      "type": "function"
    },
    {
      "inputs": [
        {
          "internalType": "address",
          "name": "from",
          "type": "address"
        },
        {
          "internalType": "address",
          "name": "to",
          "type": "address"
        },
        {
          "internalType": "uint256",
          "name": "id",
          "type": "uint256"
        },
        {
          "internalType": "uint256",
          "name": "amount",
          "type": "uint256"
        },
        {
          "internalType": "bytes",
          "name": "data",
          "type": "bytes"
        }
      ],
      "name": "safeTransferFrom",
      "outputs": [],
      "stateMutability": "nonpayable",
      "type": "function"
    },
    {
      "inputs": [
        {
          "internalType": "address",
          "name": "operator",
          "type": "address"
        },
        {
          "internalType": "bool",
          "name": "approved",
          "type": "bool"
        }
      ],
      "name": "setApprovalForAll",
      "outputs": [],
      "stateMutability": "nonpayable",
      "type": "function"
    },
    {
      "inputs": [
        {
          "internalType": "bytes4",
          "name": "interfaceId",
          "type": "bytes4"
        }
      ],
      "name": "supportsInterface",
      "outputs": [
        {
          "internalType": "bool",
          "name": "",
          "type": "bool"
        }
      ],
      "stateMutability": "view",
      "type": "function",
      "constant": true
    },
    {
      "inputs": [
        {
          "internalType": "address",
          "name": "newOwner",
          "type": "address"
        }
      ],
      "name": "transferOwnership",
      "outputs": [],
      "stateMutability": "nonpayable",
      "type": "function"
    },
    {
      "inputs": [
        {
          "internalType": "uint256",
          "name": "",
          "type": "uint256"
        }
      ],
      "name": "uri",
      "outputs": [
        {
          "internalType": "string",
          "name": "",
          "type": "string"
        }
      ],
      "stateMutability": "view",
      "type": "function",
      "constant": true
    },
    {
      "inputs": [
        {
          "internalType": "address",
          "name": "account",
          "type": "address"
        },
        {
          "internalType": "uint256",
          "name": "tokenId",
          "type": "uint256"
        },
        {
          "internalType": "uint256",
          "name": "amount",
          "type": "uint256"
        }
      ],
      "name": "mint",
      "outputs": [],
      "stateMutability": "nonpayable",
      "type": "function"
    },
    {
      "inputs": [
        {
          "internalType": "address",
          "name": "account",
          "type": "address"
        },
        {
          "internalType": "uint256",
          "name": "tokenId",
          "type": "uint256"
        },
        {
          "internalType": "uint256",
          "name": "amount",
          "type": "uint256"
        }
      ],
      "name": "burn",
      "outputs": [],
      "stateMutability": "nonpayable",
      "type": "function"
    },
    {
      "inputs": [
        {
          "internalType": "string",
          "name": "newURI",
          "type": "string"
        }
      ],
      "name": "setURI",
      "outputs": [],
      "stateMutability": "nonpayable",
      "type": "function"
    }
  ],
  "bytecode": "0x60806040523480156200001157600080fd5b5060405180606001604052806034815260200162001b5d60349139620000378162000049565b50620000433362000062565b62000196565b80516200005e906002906020840190620000b4565b5050565b600380546001600160a01b038381166001600160a01b0319831681179093556040519116919082907f8be0079c531659141344cd1fd0a4f28419497f9722a3daafe3b4186f6b6457e090600090a35050565b828054620000c2906200015a565b90600052602060002090601f016020900481019282620000e6576000855562000131565b82601f106200010157805160ff191683800117855562000131565b8280016001018555821562000131579182015b828111156200013157825182559160200191906001019062000114565b506200013f92915062000143565b5090565b5b808211156200013f576000815560010162000144565b600181811c908216806200016f57607f821691505b6020821081036200019057634e487b7160e01b600052602260045260246000fd5b50919050565b6119b780620001a66000396000f3fe608060405234801561001057600080fd5b50600436106100e95760003560e01c8063715018a61161008c578063e985e9c511610066578063e985e9c5146101e8578063f242432a14610224578063f2fde38b14610237578063f5298aca1461024a57600080fd5b8063715018a6146101b25780638da5cb5b146101ba578063a22cb465146101d557600080fd5b80630e89341c116100c85780630e89341c1461014c578063156e29f61461016c5780632eb2c2d61461017f5780634e1273f41461019257600080fd5b8062fdd58e146100ee57806301ffc9a71461011457806302fe530514610137575b600080fd5b6101016100fc3660046110c8565b61025d565b6040519081526020015b60405180910390f35b610127610122366004611108565b6102f3565b604051901515815260200161010b565b61014a6101453660046111cd565b610345565b005b61015f61015a36600461121e565b610359565b60405161010b9190611284565b61014a61017a366004611297565b6103ed565b61014a61018d36600461137f565b610415565b6101a56101a0366004611429565b610461565b60405161010b919061152f565b61014a61058b565b6003546040516001600160a01b03909116815260200161010b565b61014a6101e3366004611542565b61059f565b6101276101f636600461157e565b6001600160a01b03918216600090815260016020908152604080832093909416825291909152205460ff1690565b61014a6102323660046115b1565b6105ae565b61014a610245366004611616565b6105f3565b61014a610258366004611297565b610669565b60006001600160a01b0383166102cd5760405162461bcd60e51b815260206004820152602a60248201527f455243313135353a2061646472657373207a65726f206973206e6f742061207660448201526930b634b21037bbb732b960b11b60648201526084015b60405180910390fd5b506000908152602081815260408083206001600160a01b03949094168352929052205490565b60006001600160e01b03198216636cdb3d1360e11b148061032457506001600160e01b031982166303a24d0760e21b145b8061033f57506301ffc9a760e01b6001600160e01b03198316145b92915050565b61034d61067c565b610356816106d6565b50565b60606002805461036890611631565b80601f016020809104026020016040519081016040528092919081815260200182805461039490611631565b80156103e15780601f106103b6576101008083540402835291602001916103e1565b820191906000526020600020905b8154815290600101906020018083116103c457829003601f168201915b50505050509050919050565b6103f561067c565b610410838383604051806020016040528060008152506106e9565b505050565b6001600160a01b038516331480610431575061043185336101f6565b61044d5760405162461bcd60e51b81526004016102c49061166b565b61045a85858585856107fd565b5050505050565b606081518351146104c65760405162461bcd60e51b815260206004820152602960248201527f455243313135353a206163636f756e747320616e6420696473206c656e677468604482015268040dad2e6dac2e8c6d60bb1b60648201526084016102c4565b6000835167ffffffffffffffff8111156104e2576104e261112c565b60405190808252806020026020018201604052801561050b578160200160208202803683370190505b50905060005b84518110156105835761055685828151811061052f5761052f6116b9565b6020026020010151858381518110610549576105496116b9565b602002602001015161025d565b828281518110610568576105686116b9565b602090810291909101015261057c816116e5565b9050610511565b509392505050565b61059361067c565b61059d60006109da565b565b6105aa338383610a2c565b5050565b6001600160a01b0385163314806105ca57506105ca85336101f6565b6105e65760405162461bcd60e51b81526004016102c49061166b565b61045a8585858585610b0c565b6105fb61067c565b6001600160a01b0381166106605760405162461bcd60e51b815260206004820152602660248201527f4f776e61626c653a206e6577206f776e657220697320746865207a65726f206160448201526564647265737360d01b60648201526084016102c4565b610356816109da565b61067161067c565b610410838383610c36565b6003546001600160a01b0316331461059d5760405162461bcd60e51b815260206004820181905260248201527f4f776e61626c653a2063616c6c6572206973206e6f7420746865206f776e657260448201526064016102c4565b80516105aa906002906020840190611013565b6001600160a01b0384166107495760405162461bcd60e51b815260206004820152602160248201527f455243313135353a206d696e7420746f20746865207a65726f206164647265736044820152607360f81b60648201526084016102c4565b33600061075585610db2565b9050600061076285610db2565b90506000868152602081815260408083206001600160a01b038b168452909152812080548792906107949084906116fe565b909155505060408051878152602081018790526001600160a01b03808a1692600092918716917fc3d58168c5ae7397731d063d5bbf3d657854427343f4c083240f7aacaa2d0f62910160405180910390a46107f483600089898989610dfd565b50505050505050565b815183511461085f5760405162461bcd60e51b815260206004820152602860248201527f455243313135353a2069647320616e6420616d6f756e7473206c656e677468206044820152670dad2e6dac2e8c6d60c31b60648201526084016102c4565b6001600160a01b0384166108855760405162461bcd60e51b81526004016102c490611716565b3360005b845181101561096c5760008582815181106108a6576108a66116b9565b6020026020010151905060008583815181106108c4576108c46116b9565b602090810291909101810151600084815280835260408082206001600160a01b038e1683529093529190912054909150818110156109145760405162461bcd60e51b81526004016102c49061175b565b6000838152602081815260408083206001600160a01b038e8116855292528083208585039055908b168252812080548492906109519084906116fe565b9250508190555050505080610965906116e5565b9050610889565b50846001600160a01b0316866001600160a01b0316826001600160a01b03167f4a39dc06d4c0dbc64b70af90fd698a233a518aa5d07e595d983b8c0526c8f7fb87876040516109bc9291906117a5565b60405180910390a46109d2818787878787610f58565b505050505050565b600380546001600160a01b038381166001600160a01b0319831681179093556040519116919082907f8be0079c531659141344cd1fd0a4f28419497f9722a3daafe3b4186f6b6457e090600090a35050565b816001600160a01b0316836001600160a01b031603610a9f5760405162461bcd60e51b815260206004820152602960248201527f455243313135353a2073657474696e6720617070726f76616c20737461747573604482015268103337b91039b2b63360b91b60648201526084016102c4565b6001600160a01b03838116600081815260016020908152604080832094871680845294825291829020805460ff191686151590811790915591519182527f17307eab39ab6107e8899845ad3d59bd9653f200f220920489ca2b5937696c31910160405180910390a3505050565b6001600160a01b038416610b325760405162461bcd60e51b81526004016102c490611716565b336000610b3e85610db2565b90506000610b4b85610db2565b90506000868152602081815260408083206001600160a01b038c16845290915290205485811015610b8e5760405162461bcd60e51b81526004016102c49061175b565b6000878152602081815260408083206001600160a01b038d8116855292528083208985039055908a16825281208054889290610bcb9084906116fe565b909155505060408051888152602081018890526001600160a01b03808b16928c821692918816917fc3d58168c5ae7397731d063d5bbf3d657854427343f4c083240f7aacaa2d0f62910160405180910390a4610c2b848a8a8a8a8a610dfd565b505050505050505050565b6001600160a01b038316610c985760405162461bcd60e51b815260206004820152602360248201527f455243313135353a206275726e2066726f6d20746865207a65726f206164647260448201526265737360e81b60648201526084016102c4565b336000610ca484610db2565b90506000610cb184610db2565b60408051602080820183526000918290528882528181528282206001600160a01b038b1683529052205490915084811015610d3a5760405162461bcd60e51b8152602060048201526024808201527f455243313135353a206275726e20616d6f756e7420657863656564732062616c604482015263616e636560e01b60648201526084016102c4565b6000868152602081815260408083206001600160a01b038b81168086529184528285208a8703905582518b81529384018a90529092908816917fc3d58168c5ae7397731d063d5bbf3d657854427343f4c083240f7aacaa2d0f62910160405180910390a46040805160208101909152600090526107f4565b60408051600180825281830190925260609160009190602080830190803683370190505090508281600081518110610dec57610dec6116b9565b602090810291909101015292915050565b6001600160a01b0384163b156109d25760405163f23a6e6160e01b81526001600160a01b0385169063f23a6e6190610e4190899089908890889088906004016117d3565b6020604051808303816000875af1925050508015610e7c575060408051601f3d908101601f19168201909252610e7991810190611818565b60015b610f2857610e88611835565b806308c379a003610ec15750610e9c611851565b80610ea75750610ec3565b8060405162461bcd60e51b81526004016102c49190611284565b505b60405162461bcd60e51b815260206004820152603460248201527f455243313135353a207472616e7366657220746f206e6f6e2d455243313135356044820152732932b1b2b4bb32b91034b6b83632b6b2b73a32b960611b60648201526084016102c4565b6001600160e01b0319811663f23a6e6160e01b146107f45760405162461bcd60e51b81526004016102c4906118db565b6001600160a01b0384163b156109d25760405163bc197c8160e01b81526001600160a01b0385169063bc197c8190610f9c9089908990889088908890600401611923565b6020604051808303816000875af1925050508015610fd7575060408051601f3d908101601f19168201909252610fd491810190611818565b60015b610fe357610e88611835565b6001600160e01b0319811663bc197c8160e01b146107f45760405162461bcd60e51b81526004016102c4906118db565b82805461101f90611631565b90600052602060002090601f0160209004810192826110415760008555611087565b82601f1061105a57805160ff1916838001178555611087565b82800160010185558215611087579182015b8281111561108757825182559160200191906001019061106c565b50611093929150611097565b5090565b5b808211156110935760008155600101611098565b80356001600160a01b03811681146110c357600080fd5b919050565b600080604083850312156110db57600080fd5b6110e4836110ac565b946020939093013593505050565b6001600160e01b03198116811461035657600080fd5b60006020828403121561111a57600080fd5b8135611125816110f2565b9392505050565b634e487b7160e01b600052604160045260246000fd5b601f8201601f1916810167ffffffffffffffff811182821017156111685761116861112c565b6040525050565b600067ffffffffffffffff8311156111895761118961112c565b6040516111a0601f8501601f191660200182611142565b8091508381528484840111156111b557600080fd5b83836020830137600060208583010152509392505050565b6000602082840312156111df57600080fd5b813567ffffffffffffffff8111156111f657600080fd5b8201601f8101841361120757600080fd5b6112168482356020840161116f565b949350505050565b60006020828403121561123057600080fd5b5035919050565b6000815180845260005b8181101561125d57602081850181015186830182015201611241565b8181111561126f576000602083870101525b50601f01601f19169290920160200192915050565b6020815260006111256020830184611237565b6000806000606084860312156112ac57600080fd5b6112b5846110ac565b95602085013595506040909401359392505050565b600067ffffffffffffffff8211156112e4576112e461112c565b5060051b60200190565b600082601f8301126112ff57600080fd5b8135602061130c826112ca565b6040516113198282611142565b83815260059390931b850182019282810191508684111561133957600080fd5b8286015b84811015611354578035835291830191830161133d565b509695505050505050565b600082601f83011261137057600080fd5b6111258383356020850161116f565b600080600080600060a0868803121561139757600080fd5b6113a0866110ac565b94506113ae602087016110ac565b9350604086013567ffffffffffffffff808211156113cb57600080fd5b6113d789838a016112ee565b945060608801359150808211156113ed57600080fd5b6113f989838a016112ee565b9350608088013591508082111561140f57600080fd5b5061141c8882890161135f565b9150509295509295909350565b6000806040838503121561143c57600080fd5b823567ffffffffffffffff8082111561145457600080fd5b818501915085601f83011261146857600080fd5b81356020611475826112ca565b6040516114828282611142565b83815260059390931b85018201928281019150898411156114a257600080fd5b948201945b838610156114c7576114b8866110ac565b825294820194908201906114a7565b965050860135925050808211156114dd57600080fd5b506114ea858286016112ee565b9150509250929050565b600081518084526020808501945080840160005b8381101561152457815187529582019590820190600101611508565b509495945050505050565b60208152600061112560208301846114f4565b6000806040838503121561155557600080fd5b61155e836110ac565b91506020830135801515811461157357600080fd5b809150509250929050565b6000806040838503121561159157600080fd5b61159a836110ac565b91506115a8602084016110ac565b90509250929050565b600080600080600060a086880312156115c957600080fd5b6115d2866110ac565b94506115e0602087016110ac565b93506040860135925060608601359150608086013567ffffffffffffffff81111561160a57600080fd5b61141c8882890161135f565b60006020828403121561162857600080fd5b611125826110ac565b600181811c9082168061164557607f821691505b60208210810361166557634e487b7160e01b600052602260045260246000fd5b50919050565b6020808252602e908201527f455243313135353a2063616c6c6572206973206e6f7420746f6b656e206f776e60408201526d195c881bdc88185c1c1c9bdd995960921b606082015260800190565b634e487b7160e01b600052603260045260246000fd5b634e487b7160e01b600052601160045260246000fd5b6000600182016116f7576116f76116cf565b5060010190565b60008219821115611711576117116116cf565b500190565b60208082526025908201527f455243313135353a207472616e7366657220746f20746865207a65726f206164604082015264647265737360d81b606082015260800190565b6020808252602a908201527f455243313135353a20696e73756666696369656e742062616c616e636520666f60408201526939103a3930b739b332b960b11b606082015260800190565b6040815260006117b860408301856114f4565b82810360208401526117ca81856114f4565b95945050505050565b6001600160a01b03868116825285166020820152604081018490526060810183905260a06080820181905260009061180d90830184611237565b979650505050505050565b60006020828403121561182a57600080fd5b8151611125816110f2565b600060033d111561184e5760046000803e5060005160e01c5b90565b600060443d101561185f5790565b6040516003193d81016004833e81513d67ffffffffffffffff816024840111818411171561188f57505050505090565b82850191508151818111156118a75750505050505090565b843d87010160208285010111156118c15750505050505090565b6118d060208286010187611142565b509095945050505050565b60208082526028908201527f455243313135353a204552433131353552656365697665722072656a656374656040820152676420746f6b656e7360c01b606082015260800190565b6001600160a01b0386811682528516602082015260a06040820181905260009061194f908301866114f4565b828103606084015261196181866114f4565b905082810360808401526119758185611237565b9897505050505050505056fea2646970667358221220e0450d87093b4b938561049cbbc0c5aa84d852046dd9029e0146f67171a1dec864736f6c634300080d003368747470733a2f2f6170692e6578616d706c652e636f6d2f6372656469745f636172645f746f6b656e732f7b69647d2e6a736f6e",
  "immutableReferences": {},
  "source": "// SPDX-License-Identifier: MIT\npragma solidity ^0.8.13;\n\nimport \"@openzeppelin/contracts/token/ERC1155/ERC1155.sol\";\nimport \"@openzeppelin/contracts/access/Ownable.sol\";\n\ncontract CreditCardToken is ERC1155, Ownable {\n    constructor() ERC1155(\"https://api.example.com/credit_card_tokens/{id}.json\") {}\n\n    function mint(\n        address account,\n        uint256 tokenId,\n        uint256 amount\n    ) public onlyOwner {\n        _mint(account, tokenId, amount, \"\");\n    }\n\n    function burn(\n        address account,\n        uint256 tokenId,\n        uint256 amount\n    ) public onlyOwner {\n        _burn(account, tokenId, amount);\n    }\n\n    function setURI(string memory newURI) public onlyOwner {\n        _setURI(newURI);\n    }\n}\n",
  "sourcePath": "/Users/aisendlopez/CryptoCredit/cryptocredit-contracts/contracts/CreditCardToken.sol",
  "compiler": {
    "name": "solc",
    "version": "0.8.13+commit.abaa5c0e.Emscripten.clang"
  },
  "schemaVersion": "3.4.13",
  "updatedAt": "2023-05-11T00:16:37.658Z",
  "networkType": "ethereum",
  "devdoc": {
    "kind": "dev",
    "methods": {
      "balanceOf(address,uint256)": {
        "details": "See {IERC1155-balanceOf}. Requirements: - `account` cannot be the zero address."
      },
      "balanceOfBatch(address[],uint256[])": {
        "details": "See {IERC1155-balanceOfBatch}. Requirements: - `accounts` and `ids` must have the same length."
      },
      "isApprovedForAll(address,address)": {
        "details": "See {IERC1155-isApprovedForAll}."
      },
      "owner()": {
        "details": "Returns the address of the current owner."
      },
      "renounceOwnership()": {
        "details": "Leaves the contract without owner. It will not be possible to call `onlyOwner` functions anymore. Can only be called by the current owner. NOTE: Renouncing ownership will leave the contract without an owner, thereby removing any functionality that is only available to the owner."
      },
      "safeBatchTransferFrom(address,address,uint256[],uint256[],bytes)": {
        "details": "See {IERC1155-safeBatchTransferFrom}."
      },
      "safeTransferFrom(address,address,uint256,uint256,bytes)": {
        "details": "See {IERC1155-safeTransferFrom}."
      },
      "setApprovalForAll(address,bool)": {
        "details": "See {IERC1155-setApprovalForAll}."
      },
      "supportsInterface(bytes4)": {
        "details": "See {IERC165-supportsInterface}."
      },
      "transferOwnership(address)": {
        "details": "Transfers ownership of the contract to a new account (`newOwner`). Can only be called by the current owner."
      },
      "uri(uint256)": {
        "details": "See {IERC1155MetadataURI-uri}. This implementation returns the same URI for *all* token types. It relies on the token type ID substitution mechanism https://eips.ethereum.org/EIPS/eip-1155#metadata[defined in the EIP]. Clients calling this function must replace the `\\{id\\}` substring with the actual token type ID."
      }
    },
    "version": 1
  },
  "userdoc": {
    "kind": "user",
    "methods": {},
    "version": 1
  }
}