{
  "contractName": "CreditCardNFT",
  "abi": [
    {
      "inputs": [
        {
          "internalType": "address",
          "name": "_creditPoolAddress",
          "type": "address"
        },
        {
          "internalType": "address",
          "name": "_creditCardTokenAddress",
          "type": "address"
        }
      ],
      "stateMutability": "nonpayable",
      "type": "constructor"
    },
    {
      "anonymous": false,
      "inputs": [
        {
          "indexed": true,
          "internalType": "address",
          "name": "owner",
          "type": "address"
        },
        {
          "indexed": true,
          "internalType": "address",
          "name": "approved",
          "type": "address"
        },
        {
          "indexed": true,
          "internalType": "uint256",
          "name": "tokenId",
          "type": "uint256"
        }
      ],
      "name": "Approval",
      "type": "event"
    },
    {
      "anonymous": false,
      "inputs": [
        {
          "indexed": true,
          "internalType": "address",
          "name": "owner",
          "type": "address"
        },
        {
          "indexed": true,
          "internalType": "address",
          "name": "operator",
          "type": "address"
        },
        {
          "indexed": false,
          "internalType": "bool",
          "name": "approved",
          "type": "bool"
        }
      ],
      "name": "ApprovalForAll",
      "type": "event"
    },
    {
      "anonymous": false,
      "inputs": [
        {
          "indexed": false,
          "internalType": "uint256",
          "name": "tokenId",
          "type": "uint256"
        },
        {
          "indexed": false,
          "internalType": "address",
          "name": "requester",
          "type": "address"
        }
      ],
      "name": "CreditCardRequested",
      "type": "event"
    },
    {
      "anonymous": false,
      "inputs": [
        {
          "indexed": true,
          "internalType": "address",
          "name": "previousOwner",
          "type": "address"
        },
        {
          "indexed": true,
          "internalType": "address",
          "name": "newOwner",
          "type": "address"
        }
      ],
      "name": "OwnershipTransferred",
      "type": "event"
    },
    {
      "anonymous": false,
      "inputs": [
        {
          "indexed": true,
          "internalType": "address",
          "name": "from",
          "type": "address"
        },
        {
          "indexed": true,
          "internalType": "address",
          "name": "to",
          "type": "address"
        },
        {
          "indexed": true,
          "internalType": "uint256",
          "name": "tokenId",
          "type": "uint256"
        }
      ],
      "name": "Transfer",
      "type": "event"
    },
    {
      "inputs": [
        {
          "internalType": "address",
          "name": "to",
          "type": "address"
        },
        {
          "internalType": "uint256",
          "name": "tokenId",
          "type": "uint256"
        }
      ],
      "name": "approve",
      "outputs": [],
      "stateMutability": "nonpayable",
      "type": "function"
    },
    {
      "inputs": [
        {
          "internalType": "address",
          "name": "owner",
          "type": "address"
        }
      ],
      "name": "balanceOf",
      "outputs": [
        {
          "internalType": "uint256",
          "name": "",
          "type": "uint256"
        }
      ],
      "stateMutability": "view",
      "type": "function",
      "constant": true
    },
    {
      "inputs": [
        {
          "internalType": "uint256",
          "name": "tokenId",
          "type": "uint256"
        }
      ],
      "name": "getApproved",
      "outputs": [
        {
          "internalType": "address",
          "name": "",
          "type": "address"
        }
      ],
      "stateMutability": "view",
      "type": "function",
      "constant": true
    },
    {
      "inputs": [
        {
          "internalType": "address",
          "name": "owner",
          "type": "address"
        },
        {
          "internalType": "address",
          "name": "operator",
          "type": "address"
        }
      ],
      "name": "isApprovedForAll",
      "outputs": [
        {
          "internalType": "bool",
          "name": "",
          "type": "bool"
        }
      ],
      "stateMutability": "view",
      "type": "function",
      "constant": true
    },
    {
      "inputs": [],
      "name": "name",
      "outputs": [
        {
          "internalType": "string",
          "name": "",
          "type": "string"
        }
      ],
      "stateMutability": "view",
      "type": "function",
      "constant": true
    },
    {
      "inputs": [],
      "name": "owner",
      "outputs": [
        {
          "internalType": "address",
          "name": "",
          "type": "address"
        }
      ],
      "stateMutability": "view",
      "type": "function",
      "constant": true
    },
    {
      "inputs": [
        {
          "internalType": "uint256",
          "name": "tokenId",
          "type": "uint256"
        }
      ],
      "name": "ownerOf",
      "outputs": [
        {
          "internalType": "address",
          "name": "",
          "type": "address"
        }
      ],
      "stateMutability": "view",
      "type": "function",
      "constant": true
    },
    {
      "inputs": [],
      "name": "renounceOwnership",
      "outputs": [],
      "stateMutability": "nonpayable",
      "type": "function"
    },
    {
      "inputs": [
        {
          "internalType": "address",
          "name": "from",
          "type": "address"
        },
        {
          "internalType": "address",
          "name": "to",
          "type": "address"
        },
        {
          "internalType": "uint256",
          "name": "tokenId",
          "type": "uint256"
        }
      ],
      "name": "safeTransferFrom",
      "outputs": [],
      "stateMutability": "nonpayable",
      "type": "function"
    },
    {
      "inputs": [
        {
          "internalType": "address",
          "name": "from",
          "type": "address"
        },
        {
          "internalType": "address",
          "name": "to",
          "type": "address"
        },
        {
          "internalType": "uint256",
          "name": "tokenId",
          "type": "uint256"
        },
        {
          "internalType": "bytes",
          "name": "data",
          "type": "bytes"
        }
      ],
      "name": "safeTransferFrom",
      "outputs": [],
      "stateMutability": "nonpayable",
      "type": "function"
    },
    {
      "inputs": [
        {
          "internalType": "address",
          "name": "operator",
          "type": "address"
        },
        {
          "internalType": "bool",
          "name": "approved",
          "type": "bool"
        }
      ],
      "name": "setApprovalForAll",
      "outputs": [],
      "stateMutability": "nonpayable",
      "type": "function"
    },
    {
      "inputs": [
        {
          "internalType": "bytes4",
          "name": "interfaceId",
          "type": "bytes4"
        }
      ],
      "name": "supportsInterface",
      "outputs": [
        {
          "internalType": "bool",
          "name": "",
          "type": "bool"
        }
      ],
      "stateMutability": "view",
      "type": "function",
      "constant": true
    },
    {
      "inputs": [],
      "name": "symbol",
      "outputs": [
        {
          "internalType": "string",
          "name": "",
          "type": "string"
        }
      ],
      "stateMutability": "view",
      "type": "function",
      "constant": true
    },
    {
      "inputs": [
        {
          "internalType": "uint256",
          "name": "index",
          "type": "uint256"
        }
      ],
      "name": "tokenByIndex",
      "outputs": [
        {
          "internalType": "uint256",
          "name": "",
          "type": "uint256"
        }
      ],
      "stateMutability": "view",
      "type": "function",
      "constant": true
    },
    {
      "inputs": [
        {
          "internalType": "address",
          "name": "owner",
          "type": "address"
        },
        {
          "internalType": "uint256",
          "name": "index",
          "type": "uint256"
        }
      ],
      "name": "tokenOfOwnerByIndex",
      "outputs": [
        {
          "internalType": "uint256",
          "name": "",
          "type": "uint256"
        }
      ],
      "stateMutability": "view",
      "type": "function",
      "constant": true
    },
    {
      "inputs": [
        {
          "internalType": "uint256",
          "name": "tokenId",
          "type": "uint256"
        }
      ],
      "name": "tokenURI",
      "outputs": [
        {
          "internalType": "string",
          "name": "",
          "type": "string"
        }
      ],
      "stateMutability": "view",
      "type": "function",
      "constant": true
    },
    {
      "inputs": [],
      "name": "totalSupply",
      "outputs": [
        {
          "internalType": "uint256",
          "name": "",
          "type": "uint256"
        }
      ],
      "stateMutability": "view",
      "type": "function",
      "constant": true
    },
    {
      "inputs": [
        {
          "internalType": "address",
          "name": "from",
          "type": "address"
        },
        {
          "internalType": "address",
          "name": "to",
          "type": "address"
        },
        {
          "internalType": "uint256",
          "name": "tokenId",
          "type": "uint256"
        }
      ],
      "name": "transferFrom",
      "outputs": [],
      "stateMutability": "nonpayable",
      "type": "function"
    },
    {
      "inputs": [
        {
          "internalType": "address",
          "name": "newOwner",
          "type": "address"
        }
      ],
      "name": "transferOwnership",
      "outputs": [],
      "stateMutability": "nonpayable",
      "type": "function"
    },
    {
      "inputs": [
        {
          "internalType": "uint256",
          "name": "interestRate",
          "type": "uint256"
        },
        {
          "internalType": "uint256",
          "name": "dueDate",
          "type": "uint256"
        }
      ],
      "name": "requestNewCreditCard",
      "outputs": [],
      "stateMutability": "nonpayable",
      "type": "function"
    },
    {
      "inputs": [
        {
          "internalType": "uint256",
          "name": "tokenId",
          "type": "uint256"
        }
      ],
      "name": "getCreditCardDetails",
      "outputs": [
        {
          "internalType": "uint256",
          "name": "balance",
          "type": "uint256"
        },
        {
          "internalType": "uint256",
          "name": "interestRate",
          "type": "uint256"
        },
        {
          "internalType": "uint256",
          "name": "dueDate",
          "type": "uint256"
        }
      ],
      "stateMutability": "view",
      "type": "function",
      "constant": true
    },
    {
      "inputs": [
        {
          "internalType": "uint256",
          "name": "tokenId",
          "type": "uint256"
        },
        {
          "internalType": "uint256",
          "name": "amount",
          "type": "uint256"
        }
      ],
      "name": "requestCredit",
      "outputs": [],
      "stateMutability": "nonpayable",
      "type": "function"
    },
    {
      "inputs": [
        {
          "internalType": "uint256",
          "name": "tokenId",
          "type": "uint256"
        },
        {
          "internalType": "uint256",
          "name": "amount",
          "type": "uint256"
        }
      ],
      "name": "repayCredit",
      "outputs": [],
      "stateMutability": "nonpayable",
      "type": "function"
    },
    {
      "inputs": [
        {
          "internalType": "address",
          "name": "newAddress",
          "type": "address"
        }
      ],
      "name": "setCreditPoolAddress",
      "outputs": [],
      "stateMutability": "nonpayable",
      "type": "function"
    },
    {
      "inputs": [
        {
          "internalType": "address",
          "name": "newAddress",
          "type": "address"
        }
      ],
      "name": "setCreditCardTokenAddress",
      "outputs": [],
      "stateMutability": "nonpayable",
      "type": "function"
    }
  ],
  "bytecode": "0x60806040523480156200001157600080fd5b506040516200225b3803806200225b833981016040819052620000349162000206565b604080518082018252600f81526e10dc99591a5d0810d85c9908139195608a1b60208083019182528351808501909452600584526410d0d3919560da1b908401528151919291620000889160009162000143565b5080516200009e90600190602084019062000143565b505050620000bb620000b5620000ed60201b60201c565b620000f1565b600c80546001600160a01b039384166001600160a01b031991821617909155600d80549290931691161790556200027a565b3390565b600a80546001600160a01b038381166001600160a01b0319831681179093556040519116919082907f8be0079c531659141344cd1fd0a4f28419497f9722a3daafe3b4186f6b6457e090600090a35050565b82805462000151906200023e565b90600052602060002090601f016020900481019282620001755760008555620001c0565b82601f106200019057805160ff1916838001178555620001c0565b82800160010185558215620001c0579182015b82811115620001c0578251825591602001919060010190620001a3565b50620001ce929150620001d2565b5090565b5b80821115620001ce5760008155600101620001d3565b80516001600160a01b03811681146200020157600080fd5b919050565b600080604083850312156200021a57600080fd5b6200022583620001e9565b91506200023560208401620001e9565b90509250929050565b600181811c908216806200025357607f821691505b6020821081036200027457634e487b7160e01b600052602260045260246000fd5b50919050565b611fd1806200028a6000396000f3fe608060405234801561001057600080fd5b50600436106101735760003560e01c80637720cf1c116100de578063adbd6a8111610097578063dc9d53e411610071578063dc9d53e41461033a578063e985e9c51461034d578063f2fde38b14610389578063f5a37db41461039c57600080fd5b8063adbd6a8114610301578063b88d4fde14610314578063c87b56dd1461032757600080fd5b80637720cf1c1461028157806383590a72146102945780638da5cb5b146102a757806395d89b41146102b85780639d6572de146102c0578063a22cb465146102ee57600080fd5b80632f745c59116101305780632f745c591461021a57806342842e0e1461022d5780634f6ccce7146102405780636352211e1461025357806370a0823114610266578063715018a61461027957600080fd5b806301ffc9a71461017857806306fdde03146101a0578063081812fc146101b5578063095ea7b3146101e057806318160ddd146101f557806323b872dd14610207575b600080fd5b61018b610186366004611a4e565b6103af565b60405190151581526020015b60405180910390f35b6101a86103da565b6040516101979190611ac3565b6101c86101c3366004611ad6565b61046c565b6040516001600160a01b039091168152602001610197565b6101f36101ee366004611b0b565b610493565b005b6008545b604051908152602001610197565b6101f3610215366004611b35565b6105ad565b6101f9610228366004611b0b565b6105de565b6101f361023b366004611b35565b610674565b6101f961024e366004611ad6565b61068f565b6101c8610261366004611ad6565b610722565b6101f9610274366004611b71565b610782565b6101f3610808565b6101f361028f366004611b8c565b61081c565b6101f36102a2366004611b8c565b61097b565b600a546001600160a01b03166101c8565b6101a8610b11565b6102d36102ce366004611ad6565b610b20565b60408051938452602084019290925290820152606001610197565b6101f36102fc366004611bae565b610b93565b6101f361030f366004611b71565b610ba2565b6101f3610322366004611c00565b610bcc565b6101a8610335366004611ad6565b610c04565b6101f3610348366004611b71565b610c78565b61018b61035b366004611cdc565b6001600160a01b03918216600090815260056020908152604080832093909416825291909152205460ff1690565b6101f3610397366004611b71565b610ca2565b6101f36103aa366004611b8c565b610d1b565b60006001600160e01b0319821663780e9d6360e01b14806103d457506103d482610e78565b92915050565b6060600080546103e990611d0f565b80601f016020809104026020016040519081016040528092919081815260200182805461041590611d0f565b80156104625780601f1061043757610100808354040283529160200191610462565b820191906000526020600020905b81548152906001019060200180831161044557829003601f168201915b5050505050905090565b600061047782610ec8565b506000908152600460205260409020546001600160a01b031690565b600061049e82610722565b9050806001600160a01b0316836001600160a01b0316036105105760405162461bcd60e51b815260206004820152602160248201527f4552433732313a20617070726f76616c20746f2063757272656e74206f776e656044820152603960f91b60648201526084015b60405180910390fd5b336001600160a01b038216148061052c575061052c813361035b565b61059e5760405162461bcd60e51b815260206004820152603d60248201527f4552433732313a20617070726f76652063616c6c6572206973206e6f7420746f60448201527f6b656e206f776e6572206f7220617070726f76656420666f7220616c6c0000006064820152608401610507565b6105a88383610f18565b505050565b6105b73382610f86565b6105d35760405162461bcd60e51b815260040161050790611d49565b6105a8838383611005565b60006105e983610782565b821061064b5760405162461bcd60e51b815260206004820152602b60248201527f455243373231456e756d657261626c653a206f776e657220696e646578206f7560448201526a74206f6620626f756e647360a81b6064820152608401610507565b506001600160a01b03919091166000908152600660209081526040808320938352929052205490565b6105a883838360405180602001604052806000815250610bcc565b600061069a60085490565b82106106fd5760405162461bcd60e51b815260206004820152602c60248201527f455243373231456e756d657261626c653a20676c6f62616c20696e646578206f60448201526b7574206f6620626f756e647360a01b6064820152608401610507565b6008828154811061071057610710611d96565b90600052602060002001549050919050565b6000818152600260205260408120546001600160a01b0316806103d45760405162461bcd60e51b8152602060048201526018602482015277115490cdcc8c4e881a5b9d985b1a59081d1bdad95b88125160421b6044820152606401610507565b60006001600160a01b0382166107ec5760405162461bcd60e51b815260206004820152602960248201527f4552433732313a2061646472657373207a65726f206973206e6f7420612076616044820152683634b21037bbb732b960b91b6064820152608401610507565b506001600160a01b031660009081526003602052604090205490565b610810611176565b61081a60006111d0565b565b61082582611222565b6108415760405162461bcd60e51b815260040161050790611dac565b3361084b83610722565b6001600160a01b0316146108715760405162461bcd60e51b815260040161050790611ddb565b600c54600d5460405163f1cfb90160e01b815260048101859052336024820152604481018490526001600160a01b039283169290911690829063f1cfb90190606401600060405180830381600087803b1580156108cd57600080fd5b505af11580156108e1573d6000803e3d6000fd5b5050506000858152600e602052604081206001018054869350909190610908908490611e36565b9091555050604051630ab714fb60e11b815233600482015260248101859052604481018490526001600160a01b0382169063156e29f6906064015b600060405180830381600087803b15801561095d57600080fd5b505af1158015610971573d6000803e3d6000fd5b5050505050505050565b61098482611222565b6109a05760405162461bcd60e51b815260040161050790611dac565b336109aa83610722565b6001600160a01b0316146109d05760405162461bcd60e51b815260040161050790611ddb565b6000828152600e6020526040902060010154811115610a3b5760405162461bcd60e51b815260206004820152602160248201527f52657061796d656e7420616d6f756e7420657863656564732062616c616e63656044820152601760f91b6064820152608401610507565b600c54600d54604051639daa7a7760e01b815260048101859052336024820152604481018490526001600160a01b0392831692909116908290639daa7a7790606401600060405180830381600087803b158015610a9757600080fd5b505af1158015610aab573d6000803e3d6000fd5b5050506000858152600e602052604081206001018054869350909190610ad2908490611e4e565b9091555050604051637a94c56560e11b815233600482015260248101859052604481018490526001600160a01b0382169063f5298aca90606401610943565b6060600180546103e990611d0f565b6000806000610b2e84611222565b610b4a5760405162461bcd60e51b815260040161050790611dac565b5050506000908152600e60209081526040918290208251608081018452815481526001820154928101839052600282015493810184905260039091015460609091018190529092565b610b9e33838361123f565b5050565b610baa611176565b600c80546001600160a01b0319166001600160a01b0392909216919091179055565b610bd63383610f86565b610bf25760405162461bcd60e51b815260040161050790611d49565b610bfe8484848461130d565b50505050565b6060610c0f82610ec8565b6000610c2660408051602081019091526000815290565b90506000815111610c465760405180602001604052806000815250610c71565b80610c5084611340565b604051602001610c61929190611e65565b6040516020818303038152906040525b9392505050565b610c80611176565b600d80546001600160a01b0319166001600160a01b0392909216919091179055565b610caa611176565b6001600160a01b038116610d0f5760405162461bcd60e51b815260206004820152602660248201527f4f776e61626c653a206e6577206f776e657220697320746865207a65726f206160448201526564647265737360d01b6064820152608401610507565b610d18816111d0565b50565b60008211610d795760405162461bcd60e51b815260206004820152602560248201527f496e7465726573742072617465206d757374206265206772656174657220746860448201526430b710181760d91b6064820152608401610507565b428111610dc85760405162461bcd60e51b815260206004820152601f60248201527f4475652064617465206d75737420626520696e20746865206675747572652e006044820152606401610507565b6001600b6000828254610ddb9190611e36565b9091555050600b54604080516080810182528281526000602080830182815283850188815260608501888152878552600e909352949092208351815591516001830155925160028201559151600390920191909155610e3a33836113d3565b604080518381523360208201527f9b49f691c56d8a50bf13dfd02c83a6c9e7cc40fd51d4b8d305efd3239a4876f6910160405180910390a150505050565b60006001600160e01b031982166380ac58cd60e01b1480610ea957506001600160e01b03198216635b5e139f60e01b145b806103d457506301ffc9a760e01b6001600160e01b03198316146103d4565b610ed181611222565b610d185760405162461bcd60e51b8152602060048201526018602482015277115490cdcc8c4e881a5b9d985b1a59081d1bdad95b88125160421b6044820152606401610507565b600081815260046020526040902080546001600160a01b0319166001600160a01b0384169081179091558190610f4d82610722565b6001600160a01b03167f8c5be1e5ebec7d5bd14f71427d1e84f3dd0314c0f7b2291e5b200ac8c7c3b92560405160405180910390a45050565b600080610f9283610722565b9050806001600160a01b0316846001600160a01b03161480610fd957506001600160a01b0380821660009081526005602090815260408083209388168352929052205460ff165b80610ffd5750836001600160a01b0316610ff28461046c565b6001600160a01b0316145b949350505050565b826001600160a01b031661101882610722565b6001600160a01b03161461103e5760405162461bcd60e51b815260040161050790611e94565b6001600160a01b0382166110a05760405162461bcd60e51b8152602060048201526024808201527f4552433732313a207472616e7366657220746f20746865207a65726f206164646044820152637265737360e01b6064820152608401610507565b6110ad83838360016113ed565b826001600160a01b03166110c082610722565b6001600160a01b0316146110e65760405162461bcd60e51b815260040161050790611e94565b600081815260046020908152604080832080546001600160a01b03199081169091556001600160a01b0387811680865260038552838620805460001901905590871680865283862080546001019055868652600290945282852080549092168417909155905184937fddf252ad1be2c89b69c2b068fc378daa952ba7f163c4a11628f55a4df523b3ef91a4505050565b600a546001600160a01b0316331461081a5760405162461bcd60e51b815260206004820181905260248201527f4f776e61626c653a2063616c6c6572206973206e6f7420746865206f776e65726044820152606401610507565b600a80546001600160a01b038381166001600160a01b0319831681179093556040519116919082907f8be0079c531659141344cd1fd0a4f28419497f9722a3daafe3b4186f6b6457e090600090a35050565b6000908152600260205260409020546001600160a01b0316151590565b816001600160a01b0316836001600160a01b0316036112a05760405162461bcd60e51b815260206004820152601960248201527f4552433732313a20617070726f766520746f2063616c6c6572000000000000006044820152606401610507565b6001600160a01b03838116600081815260056020908152604080832094871680845294825291829020805460ff191686151590811790915591519182527f17307eab39ab6107e8899845ad3d59bd9653f200f220920489ca2b5937696c31910160405180910390a3505050565b611318848484611005565b61132484848484611521565b610bfe5760405162461bcd60e51b815260040161050790611ed9565b6060600061134d83611622565b600101905060008167ffffffffffffffff81111561136d5761136d611bea565b6040519080825280601f01601f191660200182016040528015611397576020820181803683370190505b5090508181016020015b600019016f181899199a1a9b1b9c1cb0b131b232b360811b600a86061a8153600a85049450846113a157509392505050565b610b9e8282604051806020016040528060008152506116fa565b600181111561145c5760405162461bcd60e51b815260206004820152603560248201527f455243373231456e756d657261626c653a20636f6e7365637574697665207472604482015274185b9cd9995c9cc81b9bdd081cdd5c1c1bdc9d1959605a1b6064820152608401610507565b816001600160a01b0385166114b8576114b381600880546000838152600960205260408120829055600182018355919091527ff3f7a9fe364faab93b216da50a3214154f22a0a2b415b23a84c8169e8b636ee30155565b6114db565b836001600160a01b0316856001600160a01b0316146114db576114db858261172d565b6001600160a01b0384166114f7576114f2816117ca565b61151a565b846001600160a01b0316846001600160a01b03161461151a5761151a8482611879565b5050505050565b60006001600160a01b0384163b1561161757604051630a85bd0160e11b81526001600160a01b0385169063150b7a0290611565903390899088908890600401611f2b565b6020604051808303816000875af19250505080156115a0575060408051601f3d908101601f1916820190925261159d91810190611f68565b60015b6115fd573d8080156115ce576040519150601f19603f3d011682016040523d82523d6000602084013e6115d3565b606091505b5080516000036115f55760405162461bcd60e51b815260040161050790611ed9565b805181602001fd5b6001600160e01b031916630a85bd0160e11b149050610ffd565b506001949350505050565b60008072184f03e93ff9f4daa797ed6e38ed64bf6a1f0160401b83106116615772184f03e93ff9f4daa797ed6e38ed64bf6a1f0160401b830492506040015b6d04ee2d6d415b85acef8100000000831061168d576d04ee2d6d415b85acef8100000000830492506020015b662386f26fc1000083106116ab57662386f26fc10000830492506010015b6305f5e10083106116c3576305f5e100830492506008015b61271083106116d757612710830492506004015b606483106116e9576064830492506002015b600a83106103d45760010192915050565b61170483836118bd565b6117116000848484611521565b6105a85760405162461bcd60e51b815260040161050790611ed9565b6000600161173a84610782565b6117449190611e4e565b600083815260076020526040902054909150808214611797576001600160a01b03841660009081526006602090815260408083208584528252808320548484528184208190558352600790915290208190555b5060009182526007602090815260408084208490556001600160a01b039094168352600681528383209183525290812055565b6008546000906117dc90600190611e4e565b6000838152600960205260408120546008805493945090928490811061180457611804611d96565b90600052602060002001549050806008838154811061182557611825611d96565b600091825260208083209091019290925582815260099091526040808220849055858252812055600880548061185d5761185d611f85565b6001900381819060005260206000200160009055905550505050565b600061188483610782565b6001600160a01b039093166000908152600660209081526040808320868452825280832085905593825260079052919091209190915550565b6001600160a01b0382166119135760405162461bcd60e51b815260206004820181905260248201527f4552433732313a206d696e7420746f20746865207a65726f20616464726573736044820152606401610507565b61191c81611222565b156119695760405162461bcd60e51b815260206004820152601c60248201527f4552433732313a20746f6b656e20616c7265616479206d696e746564000000006044820152606401610507565b6119776000838360016113ed565b61198081611222565b156119cd5760405162461bcd60e51b815260206004820152601c60248201527f4552433732313a20746f6b656e20616c7265616479206d696e746564000000006044820152606401610507565b6001600160a01b038216600081815260036020908152604080832080546001019055848352600290915280822080546001600160a01b0319168417905551839291907fddf252ad1be2c89b69c2b068fc378daa952ba7f163c4a11628f55a4df523b3ef908290a45050565b6001600160e01b031981168114610d1857600080fd5b600060208284031215611a6057600080fd5b8135610c7181611a38565b60005b83811015611a86578181015183820152602001611a6e565b83811115610bfe5750506000910152565b60008151808452611aaf816020860160208601611a6b565b601f01601f19169290920160200192915050565b602081526000610c716020830184611a97565b600060208284031215611ae857600080fd5b5035919050565b80356001600160a01b0381168114611b0657600080fd5b919050565b60008060408385031215611b1e57600080fd5b611b2783611aef565b946020939093013593505050565b600080600060608486031215611b4a57600080fd5b611b5384611aef565b9250611b6160208501611aef565b9150604084013590509250925092565b600060208284031215611b8357600080fd5b610c7182611aef565b60008060408385031215611b9f57600080fd5b50508035926020909101359150565b60008060408385031215611bc157600080fd5b611bca83611aef565b915060208301358015158114611bdf57600080fd5b809150509250929050565b634e487b7160e01b600052604160045260246000fd5b60008060008060808587031215611c1657600080fd5b611c1f85611aef565b9350611c2d60208601611aef565b925060408501359150606085013567ffffffffffffffff80821115611c5157600080fd5b818701915087601f830112611c6557600080fd5b813581811115611c7757611c77611bea565b604051601f8201601f19908116603f01168101908382118183101715611c9f57611c9f611bea565b816040528281528a6020848701011115611cb857600080fd5b82602086016020830137600060208483010152809550505050505092959194509250565b60008060408385031215611cef57600080fd5b611cf883611aef565b9150611d0660208401611aef565b90509250929050565b600181811c90821680611d2357607f821691505b602082108103611d4357634e487b7160e01b600052602260045260246000fd5b50919050565b6020808252602d908201527f4552433732313a2063616c6c6572206973206e6f7420746f6b656e206f776e6560408201526c1c881bdc88185c1c1c9bdd9959609a1b606082015260800190565b634e487b7160e01b600052603260045260246000fd5b6020808252601590820152742a37b5b2b7103237b2b9903737ba1032bc34b9ba1760591b604082015260600190565b60208082526025908201527f43616c6c6572206973206e6f7420746865206f776e6572206f6620746865207460408201526437b5b2b71760d91b606082015260800190565b634e487b7160e01b600052601160045260246000fd5b60008219821115611e4957611e49611e20565b500190565b600082821015611e6057611e60611e20565b500390565b60008351611e77818460208801611a6b565b835190830190611e8b818360208801611a6b565b01949350505050565b60208082526025908201527f4552433732313a207472616e736665722066726f6d20696e636f72726563742060408201526437bbb732b960d91b606082015260800190565b60208082526032908201527f4552433732313a207472616e7366657220746f206e6f6e20455243373231526560408201527131b2b4bb32b91034b6b83632b6b2b73a32b960711b606082015260800190565b6001600160a01b0385811682528416602082015260408101839052608060608201819052600090611f5e90830184611a97565b9695505050505050565b600060208284031215611f7a57600080fd5b8151610c7181611a38565b634e487b7160e01b600052603160045260246000fdfea26469706673582212204f5c5948330ade1831896d89f5a70addd488e289d360245c969da039362be11464736f6c634300080d0033",
  "immutableReferences": {},
  "source": "// SPDX-License-Identifier: MIT\npragma solidity ^0.8.0;\n\nimport \"@openzeppelin/contracts/token/ERC721/extensions/ERC721Enumerable.sol\";\nimport \"@openzeppelin/contracts/access/Ownable.sol\";\nimport \"./CreditCardToken.sol\";\nimport \"./CreditPool.sol\";\n\ncontract CreditCardNFT is ERC721Enumerable, Ownable {\n    uint256 private tokenIdCounter;\n    address private creditPoolAddress;\n    address private creditCardTokenAddress;\n\n    struct CreditCard {\n        uint256 tokenId;\n        uint256 balance;\n        uint256 interestRate;\n        uint256 dueDate;\n    }\n\n    mapping(uint256 => CreditCard) private creditCards;\n\n    event CreditCardRequested(uint256 tokenId, address requester);\n\n    constructor(address _creditPoolAddress, address _creditCardTokenAddress)\n        ERC721(\"Credit Card NFT\", \"CCNFT\")\n    {\n        creditPoolAddress = _creditPoolAddress;\n        creditCardTokenAddress = _creditCardTokenAddress;\n    }\n\n    function requestNewCreditCard(\n        uint256 interestRate,\n        uint256 dueDate\n    ) public {\n        require(interestRate > 0, \"Interest rate must be greater than 0.\");\n        require(dueDate > block.timestamp, \"Due date must be in the future.\");\n\n        tokenIdCounter += 1;\n        uint256 newTokenId = tokenIdCounter;\n\n        CreditCard memory newCard = CreditCard(newTokenId, 0, interestRate, dueDate);\n        creditCards[newTokenId] = newCard;\n\n        _safeMint(msg.sender, newTokenId);\n\n        emit CreditCardRequested(newTokenId, msg.sender);\n    }\n\n    function getCreditCardDetails(uint256 tokenId)\n        public\n        view\n        returns (\n            uint256 balance,\n            uint256 interestRate,\n            uint256 dueDate\n        )\n    {\n        require(_exists(tokenId), \"Token does not exist.\");\n\n        CreditCard memory card = creditCards[tokenId];\n        return (card.balance, card.interestRate, card.dueDate);\n    }\n\n    function requestCredit(uint256 tokenId, uint256 amount) public {\n        require(_exists(tokenId), \"Token does not exist.\");\n        require(ownerOf(tokenId) == msg.sender, \"Caller is not the owner of the token.\");\n\n        CreditPool pool = CreditPool(creditPoolAddress);\n        CreditCardToken token = CreditCardToken(creditCardTokenAddress);\n\n        pool.requestCredit(tokenId, msg.sender, amount);\n\n        creditCards[tokenId].balance += amount;\n        token.mint(msg.sender, tokenId, amount);\n    }\n\n    function repayCredit(uint256 tokenId, uint256 amount) public {\n        require(_exists(tokenId), \"Token does not exist.\");\n        require(ownerOf(tokenId) == msg.sender, \"Caller is not the owner of the token.\");\n        require(creditCards[tokenId].balance >= amount, \"Repayment amount exceeds balance.\");\n\n        CreditPool pool = CreditPool(creditPoolAddress);\n        CreditCardToken token = CreditCardToken(creditCardTokenAddress);\n\n        pool.repayCredit(tokenId, msg.sender, amount);\n\n        creditCards[tokenId].balance -= amount;\n        token.burn(msg.sender, tokenId, amount);\n    }\n\n    function setCreditPoolAddress(address newAddress) public onlyOwner {\n        creditPoolAddress = newAddress;\n    }\n\n    function setCreditCardTokenAddress(address newAddress) public onlyOwner {\n        creditCardTokenAddress = newAddress;\n    }\n}",
  "sourcePath": "/Users/aisendlopez/CryptoCredit/cryptocredit-contracts/contracts/CreditCardNFT.sol",
  "compiler": {
    "name": "solc",
    "version": "0.8.13+commit.abaa5c0e.Emscripten.clang"
  },
  "schemaVersion": "3.4.13",
  "updatedAt": "2023-05-11T00:16:37.397Z",
  "networkType": "ethereum",
  "devdoc": {
    "kind": "dev",
    "methods": {
      "approve(address,uint256)": {
        "details": "See {IERC721-approve}."
      },
      "balanceOf(address)": {
        "details": "See {IERC721-balanceOf}."
      },
      "getApproved(uint256)": {
        "details": "See {IERC721-getApproved}."
      },
      "isApprovedForAll(address,address)": {
        "details": "See {IERC721-isApprovedForAll}."
      },
      "name()": {
        "details": "See {IERC721Metadata-name}."
      },
      "owner()": {
        "details": "Returns the address of the current owner."
      },
      "ownerOf(uint256)": {
        "details": "See {IERC721-ownerOf}."
      },
      "renounceOwnership()": {
        "details": "Leaves the contract without owner. It will not be possible to call `onlyOwner` functions anymore. Can only be called by the current owner. NOTE: Renouncing ownership will leave the contract without an owner, thereby removing any functionality that is only available to the owner."
      },
      "safeTransferFrom(address,address,uint256)": {
        "details": "See {IERC721-safeTransferFrom}."
      },
      "safeTransferFrom(address,address,uint256,bytes)": {
        "details": "See {IERC721-safeTransferFrom}."
      },
      "setApprovalForAll(address,bool)": {
        "details": "See {IERC721-setApprovalForAll}."
      },
      "supportsInterface(bytes4)": {
        "details": "See {IERC165-supportsInterface}."
      },
      "symbol()": {
        "details": "See {IERC721Metadata-symbol}."
      },
      "tokenByIndex(uint256)": {
        "details": "See {IERC721Enumerable-tokenByIndex}."
      },
      "tokenOfOwnerByIndex(address,uint256)": {
        "details": "See {IERC721Enumerable-tokenOfOwnerByIndex}."
      },
      "tokenURI(uint256)": {
        "details": "See {IERC721Metadata-tokenURI}."
      },
      "totalSupply()": {
        "details": "See {IERC721Enumerable-totalSupply}."
      },
      "transferFrom(address,address,uint256)": {
        "details": "See {IERC721-transferFrom}."
      },
      "transferOwnership(address)": {
        "details": "Transfers ownership of the contract to a new account (`newOwner`). Can only be called by the current owner."
      }
    },
    "version": 1
  },
  "userdoc": {
    "kind": "user",
    "methods": {},
    "version": 1
  }
}